{
  "contractName": "renamedVerifier",
  "abi": [
    {
      "constant": true,
      "inputs": [
        {
          "components": [
            {
              "components": [
                {
                  "internalType": "uint256",
                  "name": "X",
                  "type": "uint256"
                },
                {
                  "internalType": "uint256",
                  "name": "Y",
                  "type": "uint256"
                }
              ],
              "internalType": "struct Pairing.G1Point",
              "name": "a",
              "type": "tuple"
            },
            {
              "components": [
                {
                  "internalType": "uint256[2]",
                  "name": "X",
                  "type": "uint256[2]"
                },
                {
                  "internalType": "uint256[2]",
                  "name": "Y",
                  "type": "uint256[2]"
                }
              ],
              "internalType": "struct Pairing.G2Point",
              "name": "b",
              "type": "tuple"
            },
            {
              "components": [
                {
                  "internalType": "uint256",
                  "name": "X",
                  "type": "uint256"
                },
                {
                  "internalType": "uint256",
                  "name": "Y",
                  "type": "uint256"
                }
              ],
              "internalType": "struct Pairing.G1Point",
              "name": "c",
              "type": "tuple"
            }
          ],
          "internalType": "struct Verifier.Proof",
          "name": "proof",
          "type": "tuple"
        },
        {
          "internalType": "uint256[1]",
          "name": "input",
          "type": "uint256[1]"
        }
      ],
      "name": "verifyTx",
      "outputs": [
        {
          "internalType": "bool",
          "name": "r",
          "type": "bool"
        }
      ],
      "payable": false,
      "stateMutability": "view",
      "type": "function"
    }
  ],
  "bytecode": "0x608060405234801561001057600080fd5b5061102c806100206000396000f3fe608060405234801561001057600080fd5b506004361061002b5760003560e01c8063f48d772914610030575b600080fd5b61004a60048036036100459190810190610edb565b610060565b6040516100579190610f52565b60405180910390f35b6000606060016040519080825280602002602001820160405280156100945781602001602082028038833980820191505090505b50905060008090505b60018110156100dc578381600181106100b257fe5b60200201358282815181106100c357fe5b602002602001018181525050808060010191505061009d565b5060006100f982868036036100f49190810190610f19565b610115565b141561010957600191505061010f565b60009150505b92915050565b6000807f30644e72e131a029b85045b68181585d2833e84879b9709143e1f593f00000019050610143610bf6565b61014b610287565b905080608001515160018651011461016257600080fd5b61016a610c3d565b6040518060400160405280600081526020016000815250905060008090505b8651811015610200578387828151811061019f57fe5b6020026020010151106101b157600080fd5b6101f1826101ec856080015160018501815181106101cb57fe5b60200260200101518a85815181106101df57fe5b6020026020010151610662565b6106f4565b91508080600101915050610189565b5061022381836080015160008151811061021657fe5b60200260200101516106f4565b90506102698560000151866020015161023b846107a5565b856040015161024d8a604001516107a5565b876060015161025f89600001516107a5565b896020015161083f565b6102795760019350505050610281565b600093505050505b92915050565b61028f610bf6565b60405180604001604052807ecb104f77f0eafed7dc636c9ed8a19d6cea5f3b0bd49a2cafa64c3abf2f70e781526020017f18e8ef37e167e7c2d06993bfd77f9d4a7d07a98a7ccc60bda4794eea1565b77b8152508160000181905250604051806040016040528060405180604001604052807f08c4ffd6ba2a9a9fe58f7dc7cd6a2b89e22670d6ae4292309789ece84606516281526020017f2b943176184743237177f771d2a183a49ec6e79a5b4c619fd0d5cb48c189630a815250815260200160405180604001604052807f2f68d7baf69631b5f5e4c1c226e77d9a67b32e37a3d892369fd36271db3f513281526020017f115977281f4007d7db986cdaf58b11d593b0efd4186c6a019253588828f913908152508152508160200181905250604051806040016040528060405180604001604052807f188f1c11c4e3aa62e57596203959001633b7eb9b2e66055bf246e8506e2445c481526020017f16bf7cb6e3fefb95b9a46d2139cb812c4753dac8b0537225e8a7e6396cbc641f815250815260200160405180604001604052807f0633a6413fcfbcd4f480d1e0f67734e3f2c76c76343178e6aab590d73ba55d4281526020017f12b78486b8ab20e9304f06cbcb8fd891cb475ab5757eae7dc9ceb233a61f0f1c8152508152508160400181905250604051806040016040528060405180604001604052807f1de62f025a208b4ac4ba4d72c7dbe3e3aaae189504bed347bd58bf4bcf598d3181526020017f0ae1e1e61dfa59aa4ea19e1139b7ebe6918dc8d8fdf02146f04cb9c231b4a7dc815250815260200160405180604001604052807f23dfded471506712c21510020939bd26a72c7fa5a0c32ef9708e78e88faaa29781526020017f28894e8bf55bd7d025c6f8f780f448e1c6e58a0b346a5238a0de43628979cd748152508152508160600181905250600260405190808252806020026020018201604052801561057557816020015b610562610c57565b81526020019060019003908161055a5790505b50816080018190525060405180604001604052807f14d466497b3962dcd4edddfec3a031482b3b78b9c145cdf7354d8dd9c200ff0581526020017e72dab38a4067069126c2267e8f00c91464450c58c4425665057a5e2d15304881525081608001516000815181106105e357fe5b602002602001018190525060405180604001604052807f2876fec7cb434192cb66edfebd63e770e3b115e8f5685bc05a1fb046ead2073981526020017f06b0a5b76201250d6a41475befef1e993580d02b6e67b8293ae8f77f3c016aaa815250816080015160018151811061065457fe5b602002602001018190525090565b61066a610c3d565b610672610c71565b83600001518160006003811061068457fe5b60200201818152505083602001518160016003811061069f57fe5b60200201818152505082816002600381106106b657fe5b602002018181525050600060608360808460076107d05a03fa905080600081146106df576106e1565bfe5b50806106ec57600080fd5b505092915050565b6106fc610c3d565b610704610c93565b83600001518160006004811061071657fe5b60200201818152505083602001518160016004811061073157fe5b60200201818152505082600001518160026004811061074c57fe5b60200201818152505082602001518160036004811061076757fe5b602002018181525050600060608360c08460066107d05a03fa9050806000811461079057610792565bfe5b508061079d57600080fd5b505092915050565b6107ad610c3d565b60007f30644e72e131a029b85045b68181585d97816a916871ca8d3c208c16d87cfd479050600083600001511480156107ea575060008360200151145b1561080e57604051806040016040528060008152602001600081525091505061083a565b6040518060400160405280846000015181526020018285602001518161083057fe5b0683038152509150505b919050565b60006060600460405190808252806020026020018201604052801561087e57816020015b61086b610c57565b8152602001906001900390816108635790505b509050606060046040519080825280602002602001820160405280156108be57816020015b6108ab610cb5565b8152602001906001900390816108a35790505b5090508a826000815181106108cf57fe5b602002602001018190525088826001815181106108e857fe5b6020026020010181905250868260028151811061090157fe5b6020026020010181905250848260038151811061091a57fe5b6020026020010181905250898160008151811061093357fe5b6020026020010181905250878160018151811061094c57fe5b6020026020010181905250858160028151811061096557fe5b6020026020010181905250838160038151811061097e57fe5b602002602001018190525061099382826109a3565b9250505098975050505050505050565b600081518351146109b357600080fd5b60008351905060006006820290506060816040519080825280602002602001820160405280156109f25781602001602082028038833980820191505090505b50905060008090505b83811015610b9857868181518110610a0f57fe5b602002602001015160000151826000600684020181518110610a2d57fe5b602002602001018181525050868181518110610a4557fe5b602002602001015160200151826001600684020181518110610a6357fe5b602002602001018181525050858181518110610a7b57fe5b602002602001015160000151600160028110610a9357fe5b6020020151826002600684020181518110610aaa57fe5b602002602001018181525050858181518110610ac257fe5b602002602001015160000151600060028110610ada57fe5b6020020151826003600684020181518110610af157fe5b602002602001018181525050858181518110610b0957fe5b602002602001015160200151600160028110610b2157fe5b6020020151826004600684020181518110610b3857fe5b602002602001018181525050858181518110610b5057fe5b602002602001015160200151600060028110610b6857fe5b6020020151826005600684020181518110610b7f57fe5b60200260200101818152505080806001019150506109fb565b50610ba1610cdb565b6000602082602086026020860160086107d05a03fa90508060008114610bc657610bc8565bfe5b5080610bd357600080fd5b600082600060018110610be257fe5b602002015114159550505050505092915050565b6040518060a00160405280610c09610c57565b8152602001610c16610cb5565b8152602001610c23610cb5565b8152602001610c30610cb5565b8152602001606081525090565b604051806040016040528060008152602001600081525090565b604051806040016040528060008152602001600081525090565b6040518060600160405280600390602082028038833980820191505090505090565b6040518060800160405280600490602082028038833980820191505090505090565b6040518060400160405280610cc8610cfd565b8152602001610cd5610cfd565b81525090565b6040518060200160405280600190602082028038833980820191505090505090565b6040518060400160405280600290602082028038833980820191505090505090565b600081905082602060010282011115610d3757600080fd5b92915050565b600082601f830112610d4e57600080fd5b6002610d61610d5c82610f9a565b610f6d565b91508183856020840282011115610d7757600080fd5b60005b83811015610da75781610d8d8882610ec6565b845260208401935060208301925050600181019050610d7a565b5050505092915050565b600060408284031215610dc357600080fd5b610dcd6040610f6d565b90506000610ddd84828501610ec6565b6000830152506020610df184828501610ec6565b60208301525092915050565b600060808284031215610e0f57600080fd5b610e196040610f6d565b90506000610e2984828501610d3d565b6000830152506040610e3d84828501610d3d565b60208301525092915050565b60006101008284031215610e5c57600080fd5b81905092915050565b60006101008284031215610e7857600080fd5b610e826060610f6d565b90506000610e9284828501610db1565b6000830152506040610ea684828501610dfd565b60208301525060c0610eba84828501610db1565b60408301525092915050565b600081359050610ed581610fd2565b92915050565b6000806101208385031215610eef57600080fd5b6000610efd85828601610e49565b925050610100610f0f85828601610d1f565b9150509250929050565b60006101008284031215610f2c57600080fd5b6000610f3a84828501610e65565b91505092915050565b610f4c81610fbc565b82525050565b6000602082019050610f676000830184610f43565b92915050565b6000604051905081810181811067ffffffffffffffff82111715610f9057600080fd5b8060405250919050565b600067ffffffffffffffff821115610fb157600080fd5b602082029050919050565b60008115159050919050565b6000819050919050565b610fdb81610fc8565b8114610fe657600080fd5b5056fea365627a7a72315820d57f8539cb7795da9aac69130555679a3f824dea70366c9d37b682c248582a9f6c6578706572696d656e74616cf564736f6c63430005100040",
  "source": "pragma solidity >=0.4.21 <0.6.0;\npragma experimental ABIEncoderV2;\n\nimport \"./verifier.sol\";\nimport \"./ERC721Mintable.sol\";\n\n// TODO define a contract call to the zokrates generated solidity contract <Verifier> or <renamedVerifier>\ncontract renamedVerifier is Verifier {\n\n}\n\n// TODO define another contract named SolnSquareVerifier that inherits from your ERC721Mintable class\ncontract SolnSquareVerifier is CustomERC721Token {\n    renamedVerifier verifier;\n    string constant name = \"Real Estate Marketplace\";\n    string constant symbol = \"REM\";\n\n    constructor() public CustomERC721Token(name, symbol) {}\n\n    // TODO define a solutions struct that can hold an index & an address\n    struct Solution {\n        uint256 index;\n        address addr;\n    }\n\n    // TODO define an array of the above struct\n    Solution[] private solutions;\n\n    // TODO define a mapping to store unique solutions submitted\n    mapping(uint256 => Solution) private submitted;\n\n    // TODO Create an event to emit when a solution is added\n    event SolutionAdded(\n        uint256 indexed index,\n        address indexed addr,\n        bool submitted\n    );\n\n    // TODO Create a function to add the solutions to the array and emit the event\n    function addSolution(uint256 index) public onlyOwner {\n        solutions.push(Solution(index, msg.sender));\n        emit SolutionAdded(index, msg.sender, false);\n    }\n\n    // TODO Create a function to mint new NFT only after the solution has been verified\n    struct Checker {\n        renamedVerifier.Proof proof;\n        uint256[1] input;\n    }\n\n    //  - make sure you handle metadata as well as tokenSuplly\n    function mint(\n        address to,\n        string memory tokenURI,\n        Checker memory checker\n    ) public {\n        require(\n            verifier.verifyTx(checker.proof, checker.input),\n            \"Wrong verification\"\n        );\n        //  - make sure the solution is unique (has not been used before)\n        require(\n            submitted[checker.input[0]].addr == address(0),\n            \"This solution has already been used\"\n        );\n        for (uint256 i = 0; i < solutions.length; i++) {\n            if (\n                solutions[i].index == checker.input[0] && checker.input[0] != 0\n            ) {\n                Solution storage solution = solutions[i];\n                submitted[checker.input[0]] = solutions[i];\n                super.mint(to, totalSupply(), tokenURI);\n                return;\n            }\n        }\n        revert(\"This solution doesn't exist\");\n    }\n}\n",
  "sourcePath": "/Users/adelmalik/Development/cours/Udacity/Blockchain-Capstone/eth-contracts/contracts/SolnSquareVerifier.sol",
  "compiler": {
    "name": "solc",
    "version": "0.5.16+commit.9c3226ce.Emscripten.clang"
  },
  "schemaVersion": "3.4.8",
  "updatedAt": "2022-08-09T15:31:03.047Z",
  "devdoc": {
    "methods": {}
  },
  "userdoc": {
    "methods": {}
  }
}