{
  "contractName": "SolnSquareVerifier",
  "abi": [
    {
      "inputs": [],
      "payable": false,
      "stateMutability": "nonpayable",
      "type": "constructor"
    },
    {
      "anonymous": false,
      "inputs": [
        {
          "indexed": true,
          "internalType": "address",
          "name": "owner",
          "type": "address"
        },
        {
          "indexed": true,
          "internalType": "address",
          "name": "approved",
          "type": "address"
        },
        {
          "indexed": true,
          "internalType": "uint256",
          "name": "tokenId",
          "type": "uint256"
        }
      ],
      "name": "Approval",
      "type": "event"
    },
    {
      "anonymous": false,
      "inputs": [
        {
          "indexed": true,
          "internalType": "address",
          "name": "owner",
          "type": "address"
        },
        {
          "indexed": true,
          "internalType": "address",
          "name": "operator",
          "type": "address"
        },
        {
          "indexed": false,
          "internalType": "bool",
          "name": "approved",
          "type": "bool"
        }
      ],
      "name": "ApprovalForAll",
      "type": "event"
    },
    {
      "anonymous": false,
      "inputs": [
        {
          "indexed": true,
          "internalType": "address",
          "name": "proprio",
          "type": "address"
        },
        {
          "indexed": true,
          "internalType": "address",
          "name": "acquereur",
          "type": "address"
        }
      ],
      "name": "OwnershipTransferred",
      "type": "event"
    },
    {
      "anonymous": false,
      "inputs": [
        {
          "indexed": true,
          "internalType": "address",
          "name": "emiter",
          "type": "address"
        }
      ],
      "name": "Paused",
      "type": "event"
    },
    {
      "anonymous": false,
      "inputs": [
        {
          "indexed": true,
          "internalType": "uint256",
          "name": "index",
          "type": "uint256"
        },
        {
          "indexed": true,
          "internalType": "address",
          "name": "addr",
          "type": "address"
        },
        {
          "indexed": false,
          "internalType": "bool",
          "name": "submitted",
          "type": "bool"
        }
      ],
      "name": "SolutionAdded",
      "type": "event"
    },
    {
      "anonymous": false,
      "inputs": [
        {
          "indexed": true,
          "internalType": "address",
          "name": "from",
          "type": "address"
        },
        {
          "indexed": true,
          "internalType": "address",
          "name": "to",
          "type": "address"
        },
        {
          "indexed": true,
          "internalType": "uint256",
          "name": "tokenId",
          "type": "uint256"
        }
      ],
      "name": "Transfer",
      "type": "event"
    },
    {
      "anonymous": false,
      "inputs": [
        {
          "indexed": true,
          "internalType": "address",
          "name": "emiter",
          "type": "address"
        }
      ],
      "name": "UnPaused",
      "type": "event"
    },
    {
      "constant": false,
      "inputs": [
        {
          "internalType": "bytes32",
          "name": "_myid",
          "type": "bytes32"
        },
        {
          "internalType": "string",
          "name": "_result",
          "type": "string"
        }
      ],
      "name": "__callback",
      "outputs": [],
      "payable": false,
      "stateMutability": "nonpayable",
      "type": "function"
    },
    {
      "constant": false,
      "inputs": [
        {
          "internalType": "bytes32",
          "name": "_myid",
          "type": "bytes32"
        },
        {
          "internalType": "string",
          "name": "_result",
          "type": "string"
        },
        {
          "internalType": "bytes",
          "name": "_proof",
          "type": "bytes"
        }
      ],
      "name": "__callback",
      "outputs": [],
      "payable": false,
      "stateMutability": "nonpayable",
      "type": "function"
    },
    {
      "constant": false,
      "inputs": [
        {
          "internalType": "address",
          "name": "to",
          "type": "address"
        },
        {
          "internalType": "uint256",
          "name": "tokenId",
          "type": "uint256"
        }
      ],
      "name": "approve",
      "outputs": [],
      "payable": false,
      "stateMutability": "nonpayable",
      "type": "function"
    },
    {
      "constant": true,
      "inputs": [
        {
          "internalType": "address",
          "name": "owner",
          "type": "address"
        }
      ],
      "name": "balanceOf",
      "outputs": [
        {
          "internalType": "uint256",
          "name": "",
          "type": "uint256"
        }
      ],
      "payable": false,
      "stateMutability": "view",
      "type": "function"
    },
    {
      "constant": true,
      "inputs": [],
      "name": "baseTokenURI",
      "outputs": [
        {
          "internalType": "string",
          "name": "",
          "type": "string"
        }
      ],
      "payable": false,
      "stateMutability": "view",
      "type": "function"
    },
    {
      "constant": true,
      "inputs": [
        {
          "internalType": "uint256",
          "name": "tokenId",
          "type": "uint256"
        }
      ],
      "name": "getApproved",
      "outputs": [
        {
          "internalType": "address",
          "name": "",
          "type": "address"
        }
      ],
      "payable": false,
      "stateMutability": "view",
      "type": "function"
    },
    {
      "constant": true,
      "inputs": [
        {
          "internalType": "address",
          "name": "owner",
          "type": "address"
        },
        {
          "internalType": "address",
          "name": "operator",
          "type": "address"
        }
      ],
      "name": "isApprovedForAll",
      "outputs": [
        {
          "internalType": "bool",
          "name": "",
          "type": "bool"
        }
      ],
      "payable": false,
      "stateMutability": "view",
      "type": "function"
    },
    {
      "constant": true,
      "inputs": [],
      "name": "name",
      "outputs": [
        {
          "internalType": "string",
          "name": "",
          "type": "string"
        }
      ],
      "payable": false,
      "stateMutability": "view",
      "type": "function"
    },
    {
      "constant": true,
      "inputs": [],
      "name": "owner",
      "outputs": [
        {
          "internalType": "address",
          "name": "",
          "type": "address"
        }
      ],
      "payable": false,
      "stateMutability": "view",
      "type": "function"
    },
    {
      "constant": true,
      "inputs": [
        {
          "internalType": "uint256",
          "name": "tokenId",
          "type": "uint256"
        }
      ],
      "name": "ownerOf",
      "outputs": [
        {
          "internalType": "address",
          "name": "",
          "type": "address"
        }
      ],
      "payable": false,
      "stateMutability": "view",
      "type": "function"
    },
    {
      "constant": false,
      "inputs": [
        {
          "internalType": "address",
          "name": "from",
          "type": "address"
        },
        {
          "internalType": "address",
          "name": "to",
          "type": "address"
        },
        {
          "internalType": "uint256",
          "name": "tokenId",
          "type": "uint256"
        }
      ],
      "name": "safeTransferFrom",
      "outputs": [],
      "payable": false,
      "stateMutability": "nonpayable",
      "type": "function"
    },
    {
      "constant": false,
      "inputs": [
        {
          "internalType": "address",
          "name": "from",
          "type": "address"
        },
        {
          "internalType": "address",
          "name": "to",
          "type": "address"
        },
        {
          "internalType": "uint256",
          "name": "tokenId",
          "type": "uint256"
        },
        {
          "internalType": "bytes",
          "name": "_data",
          "type": "bytes"
        }
      ],
      "name": "safeTransferFrom",
      "outputs": [],
      "payable": false,
      "stateMutability": "nonpayable",
      "type": "function"
    },
    {
      "constant": false,
      "inputs": [
        {
          "internalType": "address",
          "name": "to",
          "type": "address"
        },
        {
          "internalType": "bool",
          "name": "approved",
          "type": "bool"
        }
      ],
      "name": "setApprovalForAll",
      "outputs": [],
      "payable": false,
      "stateMutability": "nonpayable",
      "type": "function"
    },
    {
      "constant": true,
      "inputs": [
        {
          "internalType": "bytes4",
          "name": "interfaceId",
          "type": "bytes4"
        }
      ],
      "name": "supportsInterface",
      "outputs": [
        {
          "internalType": "bool",
          "name": "",
          "type": "bool"
        }
      ],
      "payable": false,
      "stateMutability": "view",
      "type": "function"
    },
    {
      "constant": true,
      "inputs": [],
      "name": "symbol",
      "outputs": [
        {
          "internalType": "string",
          "name": "",
          "type": "string"
        }
      ],
      "payable": false,
      "stateMutability": "view",
      "type": "function"
    },
    {
      "constant": false,
      "inputs": [],
      "name": "togglePause",
      "outputs": [],
      "payable": false,
      "stateMutability": "nonpayable",
      "type": "function"
    },
    {
      "constant": true,
      "inputs": [
        {
          "internalType": "uint256",
          "name": "index",
          "type": "uint256"
        }
      ],
      "name": "tokenByIndex",
      "outputs": [
        {
          "internalType": "uint256",
          "name": "",
          "type": "uint256"
        }
      ],
      "payable": false,
      "stateMutability": "view",
      "type": "function"
    },
    {
      "constant": true,
      "inputs": [
        {
          "internalType": "address",
          "name": "owner",
          "type": "address"
        },
        {
          "internalType": "uint256",
          "name": "index",
          "type": "uint256"
        }
      ],
      "name": "tokenOfOwnerByIndex",
      "outputs": [
        {
          "internalType": "uint256",
          "name": "",
          "type": "uint256"
        }
      ],
      "payable": false,
      "stateMutability": "view",
      "type": "function"
    },
    {
      "constant": true,
      "inputs": [
        {
          "internalType": "uint256",
          "name": "tokenId",
          "type": "uint256"
        }
      ],
      "name": "tokenURI",
      "outputs": [
        {
          "internalType": "string",
          "name": "",
          "type": "string"
        }
      ],
      "payable": false,
      "stateMutability": "view",
      "type": "function"
    },
    {
      "constant": true,
      "inputs": [],
      "name": "totalSupply",
      "outputs": [
        {
          "internalType": "uint256",
          "name": "",
          "type": "uint256"
        }
      ],
      "payable": false,
      "stateMutability": "view",
      "type": "function"
    },
    {
      "constant": false,
      "inputs": [
        {
          "internalType": "address",
          "name": "from",
          "type": "address"
        },
        {
          "internalType": "address",
          "name": "to",
          "type": "address"
        },
        {
          "internalType": "uint256",
          "name": "tokenId",
          "type": "uint256"
        }
      ],
      "name": "transferFrom",
      "outputs": [],
      "payable": false,
      "stateMutability": "nonpayable",
      "type": "function"
    },
    {
      "constant": false,
      "inputs": [
        {
          "internalType": "address",
          "name": "newOwner",
          "type": "address"
        }
      ],
      "name": "transferOwnership",
      "outputs": [],
      "payable": false,
      "stateMutability": "nonpayable",
      "type": "function"
    },
    {
      "constant": false,
      "inputs": [
        {
          "internalType": "uint256",
          "name": "index",
          "type": "uint256"
        }
      ],
      "name": "addSolution",
      "outputs": [],
      "payable": false,
      "stateMutability": "nonpayable",
      "type": "function"
    },
    {
      "constant": false,
      "inputs": [
        {
          "internalType": "address",
          "name": "to",
          "type": "address"
        },
        {
          "internalType": "string",
          "name": "tokenURI",
          "type": "string"
        },
        {
          "components": [
            {
              "components": [
                {
                  "components": [
                    {
                      "internalType": "uint256",
                      "name": "X",
                      "type": "uint256"
                    },
                    {
                      "internalType": "uint256",
                      "name": "Y",
                      "type": "uint256"
                    }
                  ],
                  "internalType": "struct Pairing.G1Point",
                  "name": "a",
                  "type": "tuple"
                },
                {
                  "components": [
                    {
                      "internalType": "uint256[2]",
                      "name": "X",
                      "type": "uint256[2]"
                    },
                    {
                      "internalType": "uint256[2]",
                      "name": "Y",
                      "type": "uint256[2]"
                    }
                  ],
                  "internalType": "struct Pairing.G2Point",
                  "name": "b",
                  "type": "tuple"
                },
                {
                  "components": [
                    {
                      "internalType": "uint256",
                      "name": "X",
                      "type": "uint256"
                    },
                    {
                      "internalType": "uint256",
                      "name": "Y",
                      "type": "uint256"
                    }
                  ],
                  "internalType": "struct Pairing.G1Point",
                  "name": "c",
                  "type": "tuple"
                }
              ],
              "internalType": "struct Verifier.Proof",
              "name": "proof",
              "type": "tuple"
            },
            {
              "internalType": "uint256[1]",
              "name": "input",
              "type": "uint256[1]"
            }
          ],
          "internalType": "struct SolnSquareVerifier.Checker",
          "name": "checker",
          "type": "tuple"
        }
      ],
      "name": "mint",
      "outputs": [],
      "payable": false,
      "stateMutability": "nonpayable",
      "type": "function"
    },
    {
      "constant": false,
      "inputs": [
        {
          "internalType": "address",
          "name": "to",
          "type": "address"
        },
        {
          "internalType": "uint256",
          "name": "tokenId",
          "type": "uint256"
        },
        {
          "internalType": "string",
          "name": "tokenURI",
          "type": "string"
        }
      ],
      "name": "mint",
      "outputs": [
        {
          "internalType": "bool",
          "name": "",
          "type": "bool"
        }
      ],
      "payable": false,
      "stateMutability": "nonpayable",
      "type": "function"
    }
  ],
  "bytecode": "0x60806040523480156200001157600080fd5b506040518060400160405280601781526020017f5265616c20457374617465204d61726b6574706c6163650000000000000000008152506040518060400160405280600381526020017f52454d000000000000000000000000000000000000000000000000000000000081525081816040518060600160405280603f815260200162003955603f9139336000806101000a81548173ffffffffffffffffffffffffffffffffffffffff021916908373ffffffffffffffffffffffffffffffffffffffff16021790555060008060146101000a81548160ff0219169083151502179055506200010c6301ffc9a760e01b620001aa60201b60201c565b620001246380ac58cd60e01b620001aa60201b60201c565b6200013c63780e9d6360e01b620001aa60201b60201c565b82600f9080519060200190620001549291906200024a565b5081601090805190602001906200016d9291906200024a565b508060119080519060200190620001869291906200024a565b506200019f635b5e139f60e01b620001aa60201b60201c565b5050505050620002f9565b63ffffffff60e01b817bffffffffffffffffffffffffffffffffffffffffffffffffffffffff19161415620001de57600080fd5b6001806000837bffffffffffffffffffffffffffffffffffffffffffffffffffffffff19167bffffffffffffffffffffffffffffffffffffffffffffffffffffffff1916815260200190815260200160002060006101000a81548160ff02191690831515021790555050565b828054600181600116156101000203166002900490600052602060002090601f016020900481019282601f106200028d57805160ff1916838001178555620002be565b82800160010185558215620002be579182015b82811115620002bd578251825591602001919060010190620002a0565b5b509050620002cd9190620002d1565b5090565b620002f691905b80821115620002f2576000816000905550600101620002d8565b5090565b90565b61364c80620003096000396000f3fe608060405234801561001057600080fd5b50600436106101735760003560e01c80636352211e116100de578063b88d4fde11610097578063d3fc986411610071578063d3fc986414610446578063d547cfb714610476578063e985e9c514610494578063f2fde38b146104c457610173565b8063b88d4fde146103f0578063c4ae31681461040c578063c87b56dd1461041657610173565b80636352211e1461031c57806370a082311461034c5780638da5cb5b1461037c5780638ee41a091461039a57806395d89b41146103b6578063a22cb465146103d457610173565b806327dc297e1161013057806327dc297e1461024c5780632f745c591461026857806338bbfa501461029857806342842e0e146102b45780634f6ccce7146102d0578063589945881461030057610173565b806301ffc9a71461017857806306fdde03146101a8578063081812fc146101c6578063095ea7b3146101f657806318160ddd1461021257806323b872dd14610230575b600080fd5b610192600480360361018d9190810190612b8d565b6104e0565b60405161019f9190613191565b60405180910390f35b6101b0610548565b6040516101bd91906131ac565b60405180910390f35b6101e060048036036101db9190810190612bdf565b6105ea565b6040516101ed919061312a565b60405180910390f35b610210600480360361020b91908101906129ee565b610627565b005b61021a6107d9565b6040516102279190613319565b60405180910390f35b61024a60048036036102459190810190612880565b6107e6565b005b61026660048036036102619190810190612aba565b610809565b005b610282600480360361027d91908101906129ee565b61084c565b60405161028f9190613319565b60405180910390f35b6102b260048036036102ad9190810190612b0e565b6108bf565b005b6102ce60048036036102c99190810190612880565b6108c4565b005b6102ea60048036036102e59190810190612bdf565b6108e4565b6040516102f79190613319565b60405180910390f35b61031a60048036036103159190810190612bdf565b610918565b005b61033660048036036103319190810190612bdf565b610aa6565b604051610343919061312a565b60405180910390f35b6103666004803603610361919081019061281b565b610ae3565b6040516103739190613319565b60405180910390f35b610384610b33565b604051610391919061312a565b60405180910390f35b6103b460048036036103af9190810190612986565b610b5c565b005b6103be610eb8565b6040516103cb91906131ac565b60405180910390f35b6103ee60048036036103e9919081019061294a565b610f5a565b005b61040a600480360361040591908101906128cf565b611090565b005b6104146110b6565b005b610430600480360361042b9190810190612bdf565b611171565b60405161043d91906131ac565b60405180910390f35b610460600480360361045b9190810190612a2a565b611238565b60405161046d9190613191565b60405180910390f35b61047e6112e8565b60405161048b91906131ac565b60405180910390f35b6104ae60048036036104a99190810190612844565b61138a565b6040516104bb9190613191565b60405180910390f35b6104de60048036036104d9919081019061281b565b61141e565b005b600060016000837bffffffffffffffffffffffffffffffffffffffffffffffffffffffff19167bffffffffffffffffffffffffffffffffffffffffffffffffffffffff1916815260200190815260200160002060009054906101000a900460ff169050919050565b6060600f8054600181600116156101000203166002900480601f0160208091040260200160405190810160405280929190818152602001828054600181600116156101000203166002900480156105e05780601f106105b5576101008083540402835291602001916105e0565b820191906000526020600020905b8154815290600101906020018083116105c357829003601f168201915b5050505050905090565b60006003600083815260200190815260200160002060009054906101000a900473ffffffffffffffffffffffffffffffffffffffff169050919050565b600061063282610aa6565b90506002600083815260200190815260200160002060009054906101000a900473ffffffffffffffffffffffffffffffffffffffff1673ffffffffffffffffffffffffffffffffffffffff168373ffffffffffffffffffffffffffffffffffffffff1614156106d6576040517f08c379a00000000000000000000000000000000000000000000000000000000081526004016106cd9061320e565b60405180910390fd5b8073ffffffffffffffffffffffffffffffffffffffff163373ffffffffffffffffffffffffffffffffffffffff16148061071e575061071d61071783610aa6565b3361138a565b5b61072757600080fd5b826003600084815260200190815260200160002060006101000a81548173ffffffffffffffffffffffffffffffffffffffff021916908373ffffffffffffffffffffffffffffffffffffffff160217905550818373ffffffffffffffffffffffffffffffffffffffff168273ffffffffffffffffffffffffffffffffffffffff167f8c5be1e5ebec7d5bd14f71427d1e84f3dd0314c0f7b2291e5b200ac8c7c3b92560405160405180910390a4505050565b6000600880549050905090565b6107f033826115ba565b6107f957600080fd5b61080483838361164f565b505050565b610848828260006040519080825280601f01601f1916602001820160405280156108425781602001600182028038833980820191505090505b506108bf565b5050565b600061085783610ae3565b821061086257600080fd5b600660008473ffffffffffffffffffffffffffffffffffffffff1673ffffffffffffffffffffffffffffffffffffffff16815260200190815260200160002082815481106108ac57fe5b9060005260206000200154905092915050565b505050565b6108df83838360405180602001604052806000815250611090565b505050565b60006108ee6107d9565b82106108f957600080fd5b6008828154811061090657fe5b90600052602060002001549050919050565b3373ffffffffffffffffffffffffffffffffffffffff166000809054906101000a900473ffffffffffffffffffffffffffffffffffffffff1673ffffffffffffffffffffffffffffffffffffffff16146109a7576040517f08c379a000000000000000000000000000000000000000000000000000000000815260040161099e906131ce565b60405180910390fd5b601460405180604001604052808381526020013373ffffffffffffffffffffffffffffffffffffffff16815250908060018154018082558091505090600182039060005260206000209060020201600090919290919091506000820151816000015560208201518160010160006101000a81548173ffffffffffffffffffffffffffffffffffffffff021916908373ffffffffffffffffffffffffffffffffffffffff1602179055505050503373ffffffffffffffffffffffffffffffffffffffff16817f01294b83361f7715b695189a469e96a6302a388f977ab3227ae6dbf84206e2836000604051610a9b9190613191565b60405180910390a350565b60006002600083815260200190815260200160002060009054906101000a900473ffffffffffffffffffffffffffffffffffffffff169050919050565b6000610b2c600460008473ffffffffffffffffffffffffffffffffffffffff1673ffffffffffffffffffffffffffffffffffffffff168152602001908152602001600020611673565b9050919050565b60008060009054906101000a900473ffffffffffffffffffffffffffffffffffffffff16905090565b601360009054906101000a900473ffffffffffffffffffffffffffffffffffffffff1673ffffffffffffffffffffffffffffffffffffffff1663f48d7729826000015183602001516040518363ffffffff1660e01b8152600401610bc19291906132ee565b60206040518083038186803b158015610bd957600080fd5b505afa158015610bed573d6000803e3d6000fd5b505050506040513d601f19601f82011682018060405250610c119190810190612a91565b610c50576040517f08c379a0000000000000000000000000000000000000000000000000000000008152600401610c479061324e565b60405180910390fd5b600073ffffffffffffffffffffffffffffffffffffffff16601560008360200151600060018110610c7d57fe5b6020020151815260200190815260200160002060010160009054906101000a900473ffffffffffffffffffffffffffffffffffffffff1673ffffffffffffffffffffffffffffffffffffffff1614610d0a576040517f08c379a0000000000000000000000000000000000000000000000000000000008152600401610d01906132ce565b60405180910390fd5b60008090505b601480549050811015610e77578160200151600060018110610d2e57fe5b602002015160148281548110610d4057fe5b906000526020600020906002020160000154148015610d75575060008260200151600060018110610d6d57fe5b602002015114155b15610e6a57600060148281548110610d8957fe5b9060005260206000209060020201905060148281548110610da657fe5b9060005260206000209060020201601560008560200151600060018110610dc957fe5b60200201518152602001908152602001600020600082015481600001556001820160009054906101000a900473ffffffffffffffffffffffffffffffffffffffff168160010160006101000a81548173ffffffffffffffffffffffffffffffffffffffff021916908373ffffffffffffffffffffffffffffffffffffffff160217905550905050610e6285610e5c6107d9565b86611238565b505050610eb3565b8080600101915050610d10565b506040517f08c379a0000000000000000000000000000000000000000000000000000000008152600401610eaa9061326e565b60405180910390fd5b505050565b606060108054600181600116156101000203166002900480601f016020809104026020016040519081016040528092919081815260200182805460018160011615610100020316600290048015610f505780601f10610f2557610100808354040283529160200191610f50565b820191906000526020600020905b815481529060010190602001808311610f3357829003601f168201915b5050505050905090565b3373ffffffffffffffffffffffffffffffffffffffff168273ffffffffffffffffffffffffffffffffffffffff161415610f9357600080fd5b80600560003373ffffffffffffffffffffffffffffffffffffffff1673ffffffffffffffffffffffffffffffffffffffff16815260200190815260200160002060008473ffffffffffffffffffffffffffffffffffffffff1673ffffffffffffffffffffffffffffffffffffffff16815260200190815260200160002060006101000a81548160ff0219169083151502179055508173ffffffffffffffffffffffffffffffffffffffff163373ffffffffffffffffffffffffffffffffffffffff167f17307eab39ab6107e8899845ad3d59bd9653f200f220920489ca2b5937696c31836040516110849190613191565b60405180910390a35050565b61109b8484846107e6565b6110a784848484611681565b6110b057600080fd5b50505050565b3373ffffffffffffffffffffffffffffffffffffffff166000809054906101000a900473ffffffffffffffffffffffffffffffffffffffff1673ffffffffffffffffffffffffffffffffffffffff1614611145576040517f08c379a000000000000000000000000000000000000000000000000000000000815260040161113c906131ce565b60405180910390fd5b600060149054906101000a900460ff1615600060146101000a81548160ff021916908315150217905550565b606061117c82611798565b61118557600080fd5b601260008381526020019081526020016000208054600181600116156101000203166002900480601f01602080910402602001604051908101604052809291908181526020018280546001816001161561010002031660029004801561122c5780601f106112015761010080835404028352916020019161122c565b820191906000526020600020905b81548152906001019060200180831161120f57829003601f168201915b50505050509050919050565b60003373ffffffffffffffffffffffffffffffffffffffff166000809054906101000a900473ffffffffffffffffffffffffffffffffffffffff1673ffffffffffffffffffffffffffffffffffffffff16146112c9576040517f08c379a00000000000000000000000000000000000000000000000000000000081526004016112c0906131ce565b60405180910390fd5b6112d3848461180a565b6112dd838361182b565b600190509392505050565b606060118054600181600116156101000203166002900480601f0160208091040260200160405190810160405280929190818152602001828054600181600116156101000203166002900480156113805780601f1061135557610100808354040283529160200191611380565b820191906000526020600020905b81548152906001019060200180831161136357829003601f168201915b5050505050905090565b6000600560008473ffffffffffffffffffffffffffffffffffffffff1673ffffffffffffffffffffffffffffffffffffffff16815260200190815260200160002060008373ffffffffffffffffffffffffffffffffffffffff1673ffffffffffffffffffffffffffffffffffffffff16815260200190815260200160002060009054906101000a900460ff16905092915050565b3373ffffffffffffffffffffffffffffffffffffffff166000809054906101000a900473ffffffffffffffffffffffffffffffffffffffff1673ffffffffffffffffffffffffffffffffffffffff16146114ad576040517f08c379a00000000000000000000000000000000000000000000000000000000081526004016114a4906131ce565b60405180910390fd5b600073ffffffffffffffffffffffffffffffffffffffff168173ffffffffffffffffffffffffffffffffffffffff16141561151d576040517f08c379a00000000000000000000000000000000000000000000000000000000081526004016115149061328e565b60405180910390fd5b8073ffffffffffffffffffffffffffffffffffffffff163373ffffffffffffffffffffffffffffffffffffffff167f8be0079c531659141344cd1fd0a4f28419497f9722a3daafe3b4186f6b6457e060405160405180910390a3806000806101000a81548173ffffffffffffffffffffffffffffffffffffffff021916908373ffffffffffffffffffffffffffffffffffffffff16021790555050565b6000806115c683610aa6565b90508073ffffffffffffffffffffffffffffffffffffffff168473ffffffffffffffffffffffffffffffffffffffff16148061163557508373ffffffffffffffffffffffffffffffffffffffff1661161d846105ea565b73ffffffffffffffffffffffffffffffffffffffff16145b806116465750611645818561138a565b5b91505092915050565b61165a83838361190c565b6116648382611b85565b61166e8282611d23565b505050565b600081600001549050919050565b60006116a28473ffffffffffffffffffffffffffffffffffffffff16611dea565b6116af5760019050611790565b60008473ffffffffffffffffffffffffffffffffffffffff1663150b7a02338887876040518563ffffffff1660e01b81526004016116f09493929190613145565b602060405180830381600087803b15801561170a57600080fd5b505af115801561171e573d6000803e3d6000fd5b505050506040513d601f19601f820116820180604052506117429190810190612bb6565b905063150b7a0260e01b7bffffffffffffffffffffffffffffffffffffffffffffffffffffffff1916817bffffffffffffffffffffffffffffffffffffffffffffffffffffffff1916149150505b949350505050565b6000806002600084815260200190815260200160002060009054906101000a900473ffffffffffffffffffffffffffffffffffffffff169050600073ffffffffffffffffffffffffffffffffffffffff168173ffffffffffffffffffffffffffffffffffffffff161415915050919050565b6118148282611e35565b61181e8282611d23565b61182781611fb0565b5050565b61183482611798565b61183d57600080fd5b6118e160118054600181600116156101000203166002900480601f0160208091040260200160405190810160405280929190818152602001828054600181600116156101000203166002900480156118d65780601f106118ab576101008083540402835291602001916118d6565b820191906000526020600020905b8154815290600101906020018083116118b957829003601f168201915b505050505082611ffc565b6012600084815260200190815260200160002090805190602001906119079291906123e0565b505050565b61191581610aa6565b73ffffffffffffffffffffffffffffffffffffffff168373ffffffffffffffffffffffffffffffffffffffff1614611982576040517f08c379a00000000000000000000000000000000000000000000000000000000081526004016119799061322e565b60405180910390fd5b600073ffffffffffffffffffffffffffffffffffffffff168273ffffffffffffffffffffffffffffffffffffffff1614156119f2576040517f08c379a00000000000000000000000000000000000000000000000000000000081526004016119e9906132ae565b60405180910390fd5b60006003600083815260200190815260200160002060006101000a81548173ffffffffffffffffffffffffffffffffffffffff021916908373ffffffffffffffffffffffffffffffffffffffff160217905550611a8c600460008573ffffffffffffffffffffffffffffffffffffffff1673ffffffffffffffffffffffffffffffffffffffff168152602001908152602001600020612040565b611ad3600460008473ffffffffffffffffffffffffffffffffffffffff1673ffffffffffffffffffffffffffffffffffffffff168152602001908152602001600020612063565b816002600083815260200190815260200160002060006101000a81548173ffffffffffffffffffffffffffffffffffffffff021916908373ffffffffffffffffffffffffffffffffffffffff160217905550808273ffffffffffffffffffffffffffffffffffffffff168473ffffffffffffffffffffffffffffffffffffffff167fddf252ad1be2c89b69c2b068fc378daa952ba7f163c4a11628f55a4df523b3ef60405160405180910390a4505050565b6000611bdd6001600660008673ffffffffffffffffffffffffffffffffffffffff1673ffffffffffffffffffffffffffffffffffffffff1681526020019081526020016000208054905061207990919063ffffffff16565b9050600060076000848152602001908152602001600020549050818114611cca576000600660008673ffffffffffffffffffffffffffffffffffffffff1673ffffffffffffffffffffffffffffffffffffffff1681526020019081526020016000208381548110611c4a57fe5b9060005260206000200154905080600660008773ffffffffffffffffffffffffffffffffffffffff1673ffffffffffffffffffffffffffffffffffffffff1681526020019081526020016000208381548110611ca257fe5b9060005260206000200181905550816007600083815260200190815260200160002081905550505b600660008573ffffffffffffffffffffffffffffffffffffffff1673ffffffffffffffffffffffffffffffffffffffff168152602001908152602001600020805480919060019003611d1c9190612460565b5050505050565b600660008373ffffffffffffffffffffffffffffffffffffffff1673ffffffffffffffffffffffffffffffffffffffff168152602001908152602001600020805490506007600083815260200190815260200160002081905550600660008373ffffffffffffffffffffffffffffffffffffffff1673ffffffffffffffffffffffffffffffffffffffff1681526020019081526020016000208190806001815401808255809150509060018203906000526020600020016000909192909190915055505050565b60008060007fc5d2460186f7233c927e7db2dcc703c0e500b653ca82273b7bfad8045d85a47060001b9050833f9150808214158015611e2c57506000801b8214155b92505050919050565b611e3e81611798565b158015611e785750600073ffffffffffffffffffffffffffffffffffffffff168273ffffffffffffffffffffffffffffffffffffffff1614155b611eb7576040517f08c379a0000000000000000000000000000000000000000000000000000000008152600401611eae906131ee565b60405180910390fd5b816002600083815260200190815260200160002060006101000a81548173ffffffffffffffffffffffffffffffffffffffff021916908373ffffffffffffffffffffffffffffffffffffffff160217905550611f50600460008473ffffffffffffffffffffffffffffffffffffffff1673ffffffffffffffffffffffffffffffffffffffff168152602001908152602001600020612063565b808273ffffffffffffffffffffffffffffffffffffffff16600073ffffffffffffffffffffffffffffffffffffffff167fddf252ad1be2c89b69c2b068fc378daa952ba7f163c4a11628f55a4df523b3ef60405160405180910390a45050565b6008805490506009600083815260200190815260200160002081905550600881908060018154018082558091505090600182039060005260206000200160009091929091909150555050565b606061203883836040518060200160405280600081525060405180602001604052806000815250604051806020016040528060008152506120c3565b905092915050565b6120586001826000015461207990919063ffffffff16565b816000018190555050565b6001816000016000828254019250508190555050565b60006120bb83836040518060400160405280601e81526020017f536166654d6174683a207375627472616374696f6e206f766572666c6f770000815250612385565b905092915050565b6060808690506060869050606086905060608690506060869050606081518351855187518951010101016040519080825280601f01601f19166020018201604052801561211f5781602001600182028038833980820191505090505b509050606081905060008090506000809050600090505b88518110156121a45788818151811061214b57fe5b602001015160f81c60f81b83838060010194508151811061216857fe5b60200101907effffffffffffffffffffffffffffffffffffffffffffffffffffffffffffff1916908160001a9053508080600101915050612136565b600090505b8751811015612217578781815181106121be57fe5b602001015160f81c60f81b8383806001019450815181106121db57fe5b60200101907effffffffffffffffffffffffffffffffffffffffffffffffffffffffffffff1916908160001a90535080806001019150506121a9565b600090505b865181101561228a5786818151811061223157fe5b602001015160f81c60f81b83838060010194508151811061224e57fe5b60200101907effffffffffffffffffffffffffffffffffffffffffffffffffffffffffffff1916908160001a905350808060010191505061221c565b600090505b85518110156122fd578581815181106122a457fe5b602001015160f81c60f81b8383806001019450815181106122c157fe5b60200101907effffffffffffffffffffffffffffffffffffffffffffffffffffffffffffff1916908160001a905350808060010191505061228f565b600090505b84518110156123705784818151811061231757fe5b602001015160f81c60f81b83838060010194508151811061233457fe5b60200101907effffffffffffffffffffffffffffffffffffffffffffffffffffffffffffff1916908160001a9053508080600101915050612302565b82995050505050505050505095945050505050565b60008383111582906123cd576040517f08c379a00000000000000000000000000000000000000000000000000000000081526004016123c491906131ac565b60405180910390fd5b5060008385039050809150509392505050565b828054600181600116156101000203166002900490600052602060002090601f016020900481019282601f1061242157805160ff191683800117855561244f565b8280016001018555821561244f579182015b8281111561244e578251825591602001919060010190612433565b5b50905061245c919061248c565b5090565b81548183558181111561248757818360005260206000209182019101612486919061248c565b5b505050565b6124ae91905b808211156124aa576000816000905550600101612492565b5090565b90565b6000813590506124c081613596565b92915050565b600082601f8301126124d757600080fd5b60016124ea6124e582613361565b613334565b9150818385602084028201111561250057600080fd5b60005b8381101561253057816125168882612806565b845260208401935060208301925050600181019050612503565b5050505092915050565b600082601f83011261254b57600080fd5b600261255e61255982613383565b613334565b9150818385602084028201111561257457600080fd5b60005b838110156125a4578161258a8882612806565b845260208401935060208301925050600181019050612577565b5050505092915050565b6000813590506125bd816135ad565b92915050565b6000815190506125d2816135ad565b92915050565b6000813590506125e7816135c4565b92915050565b6000813590506125fc816135db565b92915050565b600081519050612611816135db565b92915050565b600082601f83011261262857600080fd5b813561263b612636826133a5565b613334565b9150808252602083016020830185838301111561265757600080fd5b612662838284613543565b50505092915050565b600082601f83011261267c57600080fd5b813561268f61268a826133d1565b613334565b915080825260208301602083018583830111156126ab57600080fd5b6126b6838284613543565b50505092915050565b600061012082840312156126d257600080fd5b6126dc6040613334565b905060006126ec848285016127a5565b600083015250610100612701848285016124c6565b60208301525092915050565b60006040828403121561271f57600080fd5b6127296040613334565b9050600061273984828501612806565b600083015250602061274d84828501612806565b60208301525092915050565b60006080828403121561276b57600080fd5b6127756040613334565b905060006127858482850161253a565b60008301525060406127998482850161253a565b60208301525092915050565b600061010082840312156127b857600080fd5b6127c26060613334565b905060006127d28482850161270d565b60008301525060406127e684828501612759565b60208301525060c06127fa8482850161270d565b60408301525092915050565b600081359050612815816135f2565b92915050565b60006020828403121561282d57600080fd5b600061283b848285016124b1565b91505092915050565b6000806040838503121561285757600080fd5b6000612865858286016124b1565b9250506020612876858286016124b1565b9150509250929050565b60008060006060848603121561289557600080fd5b60006128a3868287016124b1565b93505060206128b4868287016124b1565b92505060406128c586828701612806565b9150509250925092565b600080600080608085870312156128e557600080fd5b60006128f3878288016124b1565b9450506020612904878288016124b1565b935050604061291587828801612806565b925050606085013567ffffffffffffffff81111561293257600080fd5b61293e87828801612617565b91505092959194509250565b6000806040838503121561295d57600080fd5b600061296b858286016124b1565b925050602061297c858286016125ae565b9150509250929050565b6000806000610160848603121561299c57600080fd5b60006129aa868287016124b1565b935050602084013567ffffffffffffffff8111156129c757600080fd5b6129d38682870161266b565b92505060406129e4868287016126bf565b9150509250925092565b60008060408385031215612a0157600080fd5b6000612a0f858286016124b1565b9250506020612a2085828601612806565b9150509250929050565b600080600060608486031215612a3f57600080fd5b6000612a4d868287016124b1565b9350506020612a5e86828701612806565b925050604084013567ffffffffffffffff811115612a7b57600080fd5b612a878682870161266b565b9150509250925092565b600060208284031215612aa357600080fd5b6000612ab1848285016125c3565b91505092915050565b60008060408385031215612acd57600080fd5b6000612adb858286016125d8565b925050602083013567ffffffffffffffff811115612af857600080fd5b612b048582860161266b565b9150509250929050565b600080600060608486031215612b2357600080fd5b6000612b31868287016125d8565b935050602084013567ffffffffffffffff811115612b4e57600080fd5b612b5a8682870161266b565b925050604084013567ffffffffffffffff811115612b7757600080fd5b612b8386828701612617565b9150509250925092565b600060208284031215612b9f57600080fd5b6000612bad848285016125ed565b91505092915050565b600060208284031215612bc857600080fd5b6000612bd684828501612602565b91505092915050565b600060208284031215612bf157600080fd5b6000612bff84828501612806565b91505092915050565b6000612c14838361310c565b60208301905092915050565b612c298161350d565b82525050565b612c388161348f565b82525050565b612c4781613411565b612c518184613457565b9250612c5c826133fd565b8060005b83811015612c8d578151612c748782612c08565b9650612c7f8361343d565b925050600181019050612c60565b505050505050565b612c9e8161341c565b612ca88184613462565b9250612cb382613407565b8060005b83811015612ce4578151612ccb8782612c08565b9650612cd68361344a565b925050600181019050612cb7565b505050505050565b612cf5816134a1565b82525050565b6000612d0682613427565b612d10818561346d565b9350612d20818560208601613552565b612d2981613585565b840191505092915050565b6000612d3f82613432565b612d49818561347e565b9350612d59818560208601613552565b612d6281613585565b840191505092915050565b6000612d7a601f8361347e565b91507f6e65656473206265696e672063616c6c656420627920746865206f776e6572006000830152602082019050919050565b6000612dba60338361347e565b91507f5468697320746f6b656e20616c7265616479206d696e746564206f722074686560008301527f206164647265737320697320696e76616c6964000000000000000000000000006020830152604082019050919050565b6000612e2060398361347e565b91507f74686520676976656e20616464726573732073686f756c6420746f206e6f742060008301527f626520746865206f776e6572206f662074686520746f6b656e000000000000006020830152604082019050919050565b6000612e86602c8361347e565b91507f66726f6d20706172616d65746572206973206e6f7420746865206f776e65722060008301527f6f662074686520746f6b656e00000000000000000000000000000000000000006020830152604082019050919050565b6000612eec60128361347e565b91507f57726f6e6720766572696669636174696f6e00000000000000000000000000006000830152602082019050919050565b6000612f2c601b8361347e565b91507f5468697320736f6c7574696f6e20646f65736e277420657869737400000000006000830152602082019050919050565b6000612f6c60308361347e565b91507f54686520706172616d657465722068617665206e6f7420706f696e7420746f2060008301527f746865207a65726f2061646472657373000000000000000000000000000000006020830152604082019050919050565b6000612fd2601e8361347e565b91507f746f20706172616d61746572206e6565647320746f2062652076616c696400006000830152602082019050919050565b600061301260238361347e565b91507f5468697320736f6c7574696f6e2068617320616c7265616479206265656e207560008301527f73656400000000000000000000000000000000000000000000000000000000006020830152604082019050919050565b604082016000820151613081600085018261310c565b506020820151613094602085018261310c565b50505050565b6080820160008201516130b06000850182612c95565b5060208201516130c36040850182612c95565b50505050565b610100820160008201516130e0600085018261306b565b5060208201516130f3604085018261309a565b50604082015161310660c085018261306b565b50505050565b61311581613503565b82525050565b61312481613503565b82525050565b600060208201905061313f6000830184612c2f565b92915050565b600060808201905061315a6000830187612c20565b6131676020830186612c2f565b613174604083018561311b565b81810360608301526131868184612cfb565b905095945050505050565b60006020820190506131a66000830184612cec565b92915050565b600060208201905081810360008301526131c68184612d34565b905092915050565b600060208201905081810360008301526131e781612d6d565b9050919050565b6000602082019050818103600083015261320781612dad565b9050919050565b6000602082019050818103600083015261322781612e13565b9050919050565b6000602082019050818103600083015261324781612e79565b9050919050565b6000602082019050818103600083015261326781612edf565b9050919050565b6000602082019050818103600083015261328781612f1f565b9050919050565b600060208201905081810360008301526132a781612f5f565b9050919050565b600060208201905081810360008301526132c781612fc5565b9050919050565b600060208201905081810360008301526132e781613005565b9050919050565b60006101208201905061330460008301856130c9565b613312610100830184612c3e565b9392505050565b600060208201905061332e600083018461311b565b92915050565b6000604051905081810181811067ffffffffffffffff8211171561335757600080fd5b8060405250919050565b600067ffffffffffffffff82111561337857600080fd5b602082029050919050565b600067ffffffffffffffff82111561339a57600080fd5b602082029050919050565b600067ffffffffffffffff8211156133bc57600080fd5b601f19601f8301169050602081019050919050565b600067ffffffffffffffff8211156133e857600080fd5b601f19601f8301169050602081019050919050565b6000819050919050565b6000819050919050565b600060019050919050565b600060029050919050565b600081519050919050565b600081519050919050565b6000602082019050919050565b6000602082019050919050565b600081905092915050565b600081905092915050565b600082825260208201905092915050565b600082825260208201905092915050565b600061349a826134e3565b9050919050565b60008115159050919050565b6000819050919050565b60007fffffffff0000000000000000000000000000000000000000000000000000000082169050919050565b600073ffffffffffffffffffffffffffffffffffffffff82169050919050565b6000819050919050565b60006135188261351f565b9050919050565b600061352a82613531565b9050919050565b600061353c826134e3565b9050919050565b82818337600083830152505050565b60005b83811015613570578082015181840152602081019050613555565b8381111561357f576000848401525b50505050565b6000601f19601f8301169050919050565b61359f8161348f565b81146135aa57600080fd5b50565b6135b6816134a1565b81146135c157600080fd5b50565b6135cd816134ad565b81146135d857600080fd5b50565b6135e4816134b7565b81146135ef57600080fd5b50565b6135fb81613503565b811461360657600080fd5b5056fea365627a7a723158207adb4e038302505af5084839dbdce8f774cc0ff83dc8269160af3e2d2c683f8d6c6578706572696d656e74616cf564736f6c6343000510004068747470733a2f2f73332d75732d776573742d322e616d617a6f6e6177732e636f6d2f756461636974792d626c6f636b636861696e2f63617073746f6e652f",
  "source": "pragma solidity >=0.4.21 <0.6.0;\npragma experimental ABIEncoderV2;\n\nimport \"./verifier.sol\";\nimport \"./ERC721Mintable.sol\";\n\n// TODO define a contract call to the zokrates generated solidity contract <Verifier> or <renamedVerifier>\ncontract renamedVerifier is Verifier {\n\n}\n\n// TODO define another contract named SolnSquareVerifier that inherits from your ERC721Mintable class\ncontract SolnSquareVerifier is CustomERC721Token {\n    renamedVerifier verifier;\n    string constant name = \"Real Estate Marketplace\";\n    string constant symbol = \"REM\";\n\n    constructor() public CustomERC721Token(name, symbol) {}\n\n    // TODO define a solutions struct that can hold an index & an address\n    struct Solution {\n        uint256 index;\n        address addr;\n    }\n\n    // TODO define an array of the above struct\n    Solution[] private solutions;\n\n    // TODO define a mapping to store unique solutions submitted\n    mapping(uint256 => Solution) private submitted;\n\n    // TODO Create an event to emit when a solution is added\n    event SolutionAdded(\n        uint256 indexed index,\n        address indexed addr,\n        bool submitted\n    );\n\n    // TODO Create a function to add the solutions to the array and emit the event\n    function addSolution(uint256 index) public onlyOwner {\n        solutions.push(Solution(index, msg.sender));\n        emit SolutionAdded(index, msg.sender, false);\n    }\n\n    // TODO Create a function to mint new NFT only after the solution has been verified\n    struct Checker {\n        renamedVerifier.Proof proof;\n        uint256[1] input;\n    }\n\n    //  - make sure you handle metadata as well as tokenSuplly\n    function mint(\n        address to,\n        string memory tokenURI,\n        Checker memory checker\n    ) public {\n        require(\n            verifier.verifyTx(checker.proof, checker.input),\n            \"Wrong verification\"\n        );\n        //  - make sure the solution is unique (has not been used before)\n        require(\n            submitted[checker.input[0]].addr == address(0),\n            \"This solution has already been used\"\n        );\n        for (uint256 i = 0; i < solutions.length; i++) {\n            if (\n                solutions[i].index == checker.input[0] && checker.input[0] != 0\n            ) {\n                Solution storage solution = solutions[i];\n                submitted[checker.input[0]] = solutions[i];\n                super.mint(to, totalSupply(), tokenURI);\n                return;\n            }\n        }\n        revert(\"This solution doesn't exist\");\n    }\n}\n",
  "sourcePath": "/Users/adelmalik/Development/cours/Udacity/Blockchain-Capstone/eth-contracts/contracts/SolnSquareVerifier.sol",
  "compiler": {
    "name": "solc",
    "version": "0.5.16+commit.9c3226ce.Emscripten.clang"
  },
  "schemaVersion": "3.4.8",
  "updatedAt": "2022-08-10T09:11:07.283Z",
  "networkType": "ethereum",
  "devdoc": {
    "methods": {
      "isApprovedForAll(address,address)": {
        "details": "Tells whether an operator is approved by a given owner",
        "params": {
          "operator": "operator address which you want to query the approval of",
          "owner": "owner address which you want to query the approval of"
        },
        "return": "bool whether the given operator is approved by the given owner"
      },
      "setApprovalForAll(address,bool)": {
        "details": "Sets or unsets the approval of a given operator An operator is allowed to transfer all tokens of the sender on their behalf",
        "params": {
          "approved": "representing the status of the approval to be set",
          "to": "operator address to set the approval"
        }
      },
      "supportsInterface(bytes4)": {
        "details": "implement supportsInterface(bytes4) using a lookup table"
      },
      "tokenByIndex(uint256)": {
        "details": "Gets the token ID at a given index of all the tokens in this contract Reverts if the index is greater or equal to the total number of tokens",
        "params": {
          "index": "uint256 representing the index to be accessed of the tokens list"
        },
        "return": "uint256 token ID at the given index of the tokens list"
      },
      "tokenOfOwnerByIndex(address,uint256)": {
        "details": "Gets the token ID at a given index of the tokens list of the requested owner",
        "params": {
          "index": "uint256 representing the index to be accessed of the requested tokens list",
          "owner": "address owning the tokens list to be accessed"
        },
        "return": "uint256 token ID at the given index of the tokens list owned by the requested address"
      },
      "totalSupply()": {
        "details": "Gets the total amount of tokens stored by the contract",
        "return": "uint256 representing the total amount of tokens"
      }
    }
  },
  "userdoc": {
    "methods": {}
  }
}